{"abi":[{"type":"constructor","inputs":[{"name":"_owner","type":"address","internalType":"address"}],"stateMutability":"nonpayable"},{"type":"function","name":"companies","inputs":[{"name":"company","type":"address","internalType":"address"}],"outputs":[{"name":"cid","type":"bytes","internalType":"bytes"},{"name":"name","type":"string","internalType":"string"},{"name":"bbungfluid","type":"address","internalType":"address"}],"stateMutability":"view"},{"type":"function","name":"owner","inputs":[],"outputs":[{"name":"","type":"address","internalType":"address"}],"stateMutability":"view"},{"type":"function","name":"register","inputs":[{"name":"company","type":"address","internalType":"address"},{"name":"cid","type":"bytes","internalType":"bytes"},{"name":"name","type":"string","internalType":"string"},{"name":"_usdc","type":"address","internalType":"address"}],"outputs":[{"name":"","type":"address","internalType":"address"}],"stateMutability":"nonpayable"},{"type":"function","name":"viewCompanyDetail","inputs":[{"name":"company","type":"address","internalType":"address"}],"outputs":[{"name":"","type":"tuple","internalType":"struct streamFactory.companyDetail","components":[{"name":"cid","type":"bytes","internalType":"bytes"},{"name":"name","type":"string","internalType":"string"},{"name":"bbungfluid","type":"address","internalType":"address"}]}],"stateMutability":"view"}],"bytecode":{"object":"0x608060405234801561000f575f5ffd5b5060405161321b38038061321b833981810160405281019061003191906100d4565b805f5f6101000a81548173ffffffffffffffffffffffffffffffffffffffff021916908373ffffffffffffffffffffffffffffffffffffffff160217905550506100ff565b5f5ffd5b5f73ffffffffffffffffffffffffffffffffffffffff82169050919050565b5f6100a38261007a565b9050919050565b6100b381610099565b81146100bd575f5ffd5b50565b5f815190506100ce816100aa565b92915050565b5f602082840312156100e9576100e8610076565b5b5f6100f6848285016100c0565b91505092915050565b61310f8061010c5f395ff3fe608060405234801561000f575f5ffd5b506004361061004a575f3560e01c8063355e6ce81461004e57806361ed723c146100805780638da5cb5b146100b0578063a0639012146100ce575b5f5ffd5b6100686004803603810190610063919061069e565b6100fe565b6040516100779392919061079a565b60405180910390f35b61009a6004803603810190610095919061069e565b61024f565b6040516100a791906108d0565b60405180910390f35b6100b861041a565b6040516100c591906108f0565b60405180910390f35b6100e860048036038101906100e39190610ad3565b61043e565b6040516100f591906108f0565b60405180910390f35b6001602052805f5260405f205f91509050805f01805461011d90610b9c565b80601f016020809104026020016040519081016040528092919081815260200182805461014990610b9c565b80156101945780601f1061016b57610100808354040283529160200191610194565b820191905f5260205f20905b81548152906001019060200180831161017757829003601f168201915b5050505050908060010180546101a990610b9c565b80601f01602080910402602001604051908101604052809291908181526020018280546101d590610b9c565b80156102205780601f106101f757610100808354040283529160200191610220565b820191905f5260205f20905b81548152906001019060200180831161020357829003601f168201915b505050505090806002015f9054906101000a900473ffffffffffffffffffffffffffffffffffffffff16905083565b6102576105f0565b60015f8373ffffffffffffffffffffffffffffffffffffffff1673ffffffffffffffffffffffffffffffffffffffff1681526020019081526020015f206040518060600160405290815f820180546102ae90610b9c565b80601f01602080910402602001604051908101604052809291908181526020018280546102da90610b9c565b80156103255780601f106102fc57610100808354040283529160200191610325565b820191905f5260205f20905b81548152906001019060200180831161030857829003601f168201915b5050505050815260200160018201805461033e90610b9c565b80601f016020809104026020016040519081016040528092919081815260200182805461036a90610b9c565b80156103b55780601f1061038c576101008083540402835291602001916103b5565b820191905f5260205f20905b81548152906001019060200180831161039857829003601f168201915b50505050508152602001600282015f9054906101000a900473ffffffffffffffffffffffffffffffffffffffff1673ffffffffffffffffffffffffffffffffffffffff1673ffffffffffffffffffffffffffffffffffffffff16815250509050919050565b5f5f9054906101000a900473ffffffffffffffffffffffffffffffffffffffff1681565b5f5f5f9054906101000a900473ffffffffffffffffffffffffffffffffffffffff1673ffffffffffffffffffffffffffffffffffffffff163373ffffffffffffffffffffffffffffffffffffffff16146104cd576040517f08c379a00000000000000000000000000000000000000000000000000000000081526004016104c490610c16565b60405180910390fd5b5f85836040516104dc90610626565b6104e7929190610c34565b604051809103905ff080158015610500573d5f5f3e3d5ffd5b50905060405180606001604052808681526020018581526020018273ffffffffffffffffffffffffffffffffffffffff1681525060015f8873ffffffffffffffffffffffffffffffffffffffff1673ffffffffffffffffffffffffffffffffffffffff1681526020019081526020015f205f820151815f0190816105849190610e04565b50602082015181600101908161059a9190610f2b565b506040820151816002015f6101000a81548173ffffffffffffffffffffffffffffffffffffffff021916908373ffffffffffffffffffffffffffffffffffffffff16021790555090505080915050949350505050565b604051806060016040528060608152602001606081526020015f73ffffffffffffffffffffffffffffffffffffffff1681525090565b6120df80610ffb83390190565b5f604051905090565b5f5ffd5b5f5ffd5b5f73ffffffffffffffffffffffffffffffffffffffff82169050919050565b5f61066d82610644565b9050919050565b61067d81610663565b8114610687575f5ffd5b50565b5f8135905061069881610674565b92915050565b5f602082840312156106b3576106b261063c565b5b5f6106c08482850161068a565b91505092915050565b5f81519050919050565b5f82825260208201905092915050565b8281835e5f83830152505050565b5f601f19601f8301169050919050565b5f61070b826106c9565b61071581856106d3565b93506107258185602086016106e3565b61072e816106f1565b840191505092915050565b5f81519050919050565b5f82825260208201905092915050565b5f61075d82610739565b6107678185610743565b93506107778185602086016106e3565b610780816106f1565b840191505092915050565b61079481610663565b82525050565b5f6060820190508181035f8301526107b28186610701565b905081810360208301526107c68185610753565b90506107d5604083018461078b565b949350505050565b5f82825260208201905092915050565b5f6107f7826106c9565b61080181856107dd565b93506108118185602086016106e3565b61081a816106f1565b840191505092915050565b5f82825260208201905092915050565b5f61083f82610739565b6108498185610825565b93506108598185602086016106e3565b610862816106f1565b840191505092915050565b61087681610663565b82525050565b5f606083015f8301518482035f86015261089682826107ed565b915050602083015184820360208601526108b08282610835565b91505060408301516108c5604086018261086d565b508091505092915050565b5f6020820190508181035f8301526108e8818461087c565b905092915050565b5f6020820190506109035f83018461078b565b92915050565b5f5ffd5b5f5ffd5b7f4e487b71000000000000000000000000000000000000000000000000000000005f52604160045260245ffd5b610947826106f1565b810181811067ffffffffffffffff8211171561096657610965610911565b5b80604052505050565b5f610978610633565b9050610984828261093e565b919050565b5f67ffffffffffffffff8211156109a3576109a2610911565b5b6109ac826106f1565b9050602081019050919050565b828183375f83830152505050565b5f6109d96109d484610989565b61096f565b9050828152602081018484840111156109f5576109f461090d565b5b610a008482856109b9565b509392505050565b5f82601f830112610a1c57610a1b610909565b5b8135610a2c8482602086016109c7565b91505092915050565b5f67ffffffffffffffff821115610a4f57610a4e610911565b5b610a58826106f1565b9050602081019050919050565b5f610a77610a7284610a35565b61096f565b905082815260208101848484011115610a9357610a9261090d565b5b610a9e8482856109b9565b509392505050565b5f82601f830112610aba57610ab9610909565b5b8135610aca848260208601610a65565b91505092915050565b5f5f5f5f60808587031215610aeb57610aea61063c565b5b5f610af88782880161068a565b945050602085013567ffffffffffffffff811115610b1957610b18610640565b5b610b2587828801610a08565b935050604085013567ffffffffffffffff811115610b4657610b45610640565b5b610b5287828801610aa6565b9250506060610b638782880161068a565b91505092959194509250565b7f4e487b71000000000000000000000000000000000000000000000000000000005f52602260045260245ffd5b5f6002820490506001821680610bb357607f821691505b602082108103610bc657610bc5610b6f565b5b50919050565b7f4e6f74206f776e657200000000000000000000000000000000000000000000005f82015250565b5f610c00600983610743565b9150610c0b82610bcc565b602082019050919050565b5f6020820190508181035f830152610c2d81610bf4565b9050919050565b5f604082019050610c475f83018561078b565b610c54602083018461078b565b9392505050565b5f819050815f5260205f209050919050565b5f6020601f8301049050919050565b5f82821b905092915050565b5f60088302610cb77fffffffffffffffffffffffffffffffffffffffffffffffffffffffffffffffff82610c7c565b610cc18683610c7c565b95508019841693508086168417925050509392505050565b5f819050919050565b5f819050919050565b5f610d05610d00610cfb84610cd9565b610ce2565b610cd9565b9050919050565b5f819050919050565b610d1e83610ceb565b610d32610d2a82610d0c565b848454610c88565b825550505050565b5f5f905090565b610d49610d3a565b610d54818484610d15565b505050565b5b81811015610d7757610d6c5f82610d41565b600181019050610d5a565b5050565b601f821115610dbc57610d8d81610c5b565b610d9684610c6d565b81016020851015610da5578190505b610db9610db185610c6d565b830182610d59565b50505b505050565b5f82821c905092915050565b5f610ddc5f1984600802610dc1565b1980831691505092915050565b5f610df48383610dcd565b9150826002028217905092915050565b610e0d826106c9565b67ffffffffffffffff811115610e2657610e25610911565b5b610e308254610b9c565b610e3b828285610d7b565b5f60209050601f831160018114610e6c575f8415610e5a578287015190505b610e648582610de9565b865550610ecb565b601f198416610e7a86610c5b565b5f5b82811015610ea157848901518255600182019150602085019450602081019050610e7c565b86831015610ebe5784890151610eba601f891682610dcd565b8355505b6001600288020188555050505b505050505050565b5f819050815f5260205f209050919050565b601f821115610f2657610ef781610ed3565b610f0084610c6d565b81016020851015610f0f578190505b610f23610f1b85610c6d565b830182610d59565b50505b505050565b610f3482610739565b67ffffffffffffffff811115610f4d57610f4c610911565b5b610f578254610b9c565b610f62828285610ee5565b5f60209050601f831160018114610f93575f8415610f81578287015190505b610f8b8582610de9565b865550610ff2565b601f198416610fa186610ed3565b5f5b82811015610fc857848901518255600182019150602085019450602081019050610fa3565b86831015610fe55784890151610fe1601f891682610dcd565b8355505b6001600288020188555050505b50505050505056fe608060405234801561000f575f5ffd5b506040516120df3803806120df83398181016040528101906100319190610122565b8160015f6101000a81548173ffffffffffffffffffffffffffffffffffffffff021916908373ffffffffffffffffffffffffffffffffffffffff1602179055508060065f6101000a81548173ffffffffffffffffffffffffffffffffffffffff021916908373ffffffffffffffffffffffffffffffffffffffff1602179055506402540be4006005819055505050610160565b5f5ffd5b5f73ffffffffffffffffffffffffffffffffffffffff82169050919050565b5f6100f1826100c8565b9050919050565b610101816100e7565b811461010b575f5ffd5b50565b5f8151905061011c816100f8565b92915050565b5f5f60408385031215610138576101376100c4565b5b5f6101458582860161010e565b92505060206101568582860161010e565b9150509250929050565b611f728061016d5f395ff3fe608060405234801561000f575f5ffd5b5060043610610109575f3560e01c806386c5d4a1116100a0578063aa24147e1161006f578063aa24147e146102a1578063ad7a672f146102bd578063bedcf003146102db578063c475713f146102f9578063da17c5131461031757610109565b806386c5d4a1146102055780638da5cb5b14610235578063a388541314610253578063a87430ba1461026f57610109565b8063410085df116100dc578063410085df1461017f57806347e7ef241461019b5780634b9d11eb146101b75780637375ce43146101d557610109565b806313af40351461010d57806323341ada146101295780632cadfad8146101455780633e413bee14610161575b5f5ffd5b610127600480360381019061012291906116ac565b610333565b005b610143600480360381019061013e91906116ac565b610405565b005b61015f600480360381019061015a919061170a565b6109ab565b005b610169610ad2565b60405161017691906117a3565b60405180910390f35b610199600480360381019061019491906117bc565b610af7565b005b6101b560048036038101906101b091906117bc565b610c37565b005b6101bf610daa565b6040516101cc9190611809565b60405180910390f35b6101ef60048036038101906101ea91906116ac565b610db0565b6040516101fc9190611809565b60405180910390f35b61021f600480360381019061021a91906116ac565b610e05565b60405161022c91906118ad565b60405180910390f35b61023d610ee0565b60405161024a91906118d5565b60405180910390f35b61026d600480360381019061026891906117bc565b610f05565b005b610289600480360381019061028491906116ac565b611028565b6040516102989392919061191b565b60405180910390f35b6102bb60048036038101906102b691906117bc565b611089565b005b6102c5611250565b6040516102d29190611809565b60405180910390f35b6102e3611256565b6040516102f09190611809565b60405180910390f35b61030161125c565b60405161030e9190611809565b60405180910390f35b610331600480360381019061032c91906117bc565b611262565b005b60015f9054906101000a900473ffffffffffffffffffffffffffffffffffffffff1673ffffffffffffffffffffffffffffffffffffffff163373ffffffffffffffffffffffffffffffffffffffff16146103c2576040517f08c379a00000000000000000000000000000000000000000000000000000000081526004016103b9906119aa565b60405180910390fd5b8060015f6101000a81548173ffffffffffffffffffffffffffffffffffffffff021916908373ffffffffffffffffffffffffffffffffffffffff16021790555050565b8073ffffffffffffffffffffffffffffffffffffffff163373ffffffffffffffffffffffffffffffffffffffff16148061048b575060015f9054906101000a900473ffffffffffffffffffffffffffffffffffffffff1673ffffffffffffffffffffffffffffffffffffffff163373ffffffffffffffffffffffffffffffffffffffff16145b6104ca576040517f08c379a00000000000000000000000000000000000000000000000000000000081526004016104c190611a12565b60405180910390fd5b5f5f8273ffffffffffffffffffffffffffffffffffffffff1673ffffffffffffffffffffffffffffffffffffffff1681526020019081526020015f206002015f0154421161054d576040517f08c379a000000000000000000000000000000000000000000000000000000000815260040161054490611a7a565b60405180910390fd5b425f5f8373ffffffffffffffffffffffffffffffffffffffff1673ffffffffffffffffffffffffffffffffffffffff1681526020019081526020015f206002016001018190555061012c5f5f8373ffffffffffffffffffffffffffffffffffffffff1673ffffffffffffffffffffffffffffffffffffffff1681526020019081526020015f206002015f01545f5f8473ffffffffffffffffffffffffffffffffffffffff1673ffffffffffffffffffffffffffffffffffffffff1681526020019081526020015f20600201600101546106269190611ac5565b1161072a576005546005603c60045461063f9190611af8565b6106499190611af8565b6106539190611b66565b5f5f8373ffffffffffffffffffffffffffffffffffffffff1673ffffffffffffffffffffffffffffffffffffffff1681526020019081526020015f206001015f8282546106a09190611ac5565b925050819055506005546005603c6004546106bb9190611af8565b6106c59190611af8565b6106cf9190611b66565b60035f8282546106df9190611ac5565b925050819055506005546005603c6004546106fa9190611af8565b6107049190611af8565b61070e9190611b66565b60025f82825461071e9190611b96565b925050819055506109a8565b6005545f5f8373ffffffffffffffffffffffffffffffffffffffff1673ffffffffffffffffffffffffffffffffffffffff1681526020019081526020015f206002015f01545f5f8473ffffffffffffffffffffffffffffffffffffffff1673ffffffffffffffffffffffffffffffffffffffff1681526020019081526020015f20600201600101546107bc9190611ac5565b6004546107c99190611af8565b6107d39190611b66565b5f5f8373ffffffffffffffffffffffffffffffffffffffff1673ffffffffffffffffffffffffffffffffffffffff1681526020019081526020015f206001015f8282546108209190611ac5565b925050819055506005545f5f8373ffffffffffffffffffffffffffffffffffffffff1673ffffffffffffffffffffffffffffffffffffffff1681526020019081526020015f206002015f01545f5f8473ffffffffffffffffffffffffffffffffffffffff1673ffffffffffffffffffffffffffffffffffffffff1681526020019081526020015f20600201600101546108b99190611ac5565b6004546108c69190611af8565b6108d09190611b66565b60035f8282546108e09190611ac5565b925050819055506005545f5f8373ffffffffffffffffffffffffffffffffffffffff1673ffffffffffffffffffffffffffffffffffffffff1681526020019081526020015f206002015f01545f5f8473ffffffffffffffffffffffffffffffffffffffff1673ffffffffffffffffffffffffffffffffffffffff1681526020019081526020015f20600201600101546109799190611ac5565b6004546109869190611af8565b6109909190611b66565b60025f8282546109a09190611b96565b925050819055505b50565b60015f9054906101000a900473ffffffffffffffffffffffffffffffffffffffff1673ffffffffffffffffffffffffffffffffffffffff163373ffffffffffffffffffffffffffffffffffffffff1614610a3a576040517f08c379a0000000000000000000000000000000000000000000000000000000008152600401610a31906119aa565b60405180910390fd5b6064821115610a7e576040517f08c379a0000000000000000000000000000000000000000000000000000000008152600401610a7590611c13565b60405180910390fd5b5f8103610a8d575f6004819055505b620f42408110610ace57603c8083610aa59190611af8565b610aaf9190611af8565b60055482610abd9190611af8565b610ac79190611b66565b6004819055505b5050565b60065f9054906101000a900473ffffffffffffffffffffffffffffffffffffffff1681565b8173ffffffffffffffffffffffffffffffffffffffff163373ffffffffffffffffffffffffffffffffffffffff1614610b65576040517f08c379a0000000000000000000000000000000000000000000000000000000008152600401610b5c90611c7b565b60405180910390fd5b5f5f8373ffffffffffffffffffffffffffffffffffffffff1673ffffffffffffffffffffffffffffffffffffffff1681526020019081526020015f2060010154811115610be7576040517f08c379a0000000000000000000000000000000000000000000000000000000008152600401610bde90611ce3565b60405180910390fd5b610c33828260065f9054906101000a900473ffffffffffffffffffffffffffffffffffffffff1673ffffffffffffffffffffffffffffffffffffffff166114169092919063ffffffff16565b5050565b8173ffffffffffffffffffffffffffffffffffffffff163373ffffffffffffffffffffffffffffffffffffffff1614610ca5576040517f08c379a0000000000000000000000000000000000000000000000000000000008152600401610c9c90611c7b565b60405180910390fd5b620f4240811015610ceb576040517f08c379a0000000000000000000000000000000000000000000000000000000008152600401610ce290611d4b565b60405180910390fd5b610d3933308360065f9054906101000a900473ffffffffffffffffffffffffffffffffffffffff1673ffffffffffffffffffffffffffffffffffffffff16611495909392919063ffffffff16565b805f5f8473ffffffffffffffffffffffffffffffffffffffff1673ffffffffffffffffffffffffffffffffffffffff1681526020019081526020015f206001015f828254610d879190611b96565b925050819055508060035f828254610d9f9190611b96565b925050819055505050565b60045481565b5f6004545f5f8473ffffffffffffffffffffffffffffffffffffffff1673ffffffffffffffffffffffffffffffffffffffff1681526020019081526020015f2060010154610dfe9190611b66565b9050919050565b610e0d6115fb565b5f5f8373ffffffffffffffffffffffffffffffffffffffff1673ffffffffffffffffffffffffffffffffffffffff1681526020019081526020015f206040518060600160405290815f82015f9054906101000a900473ffffffffffffffffffffffffffffffffffffffff1673ffffffffffffffffffffffffffffffffffffffff1673ffffffffffffffffffffffffffffffffffffffff16815260200160018201548152602001600282016040518060400160405290815f8201548152602001600182015481525050815250509050919050565b60015f9054906101000a900473ffffffffffffffffffffffffffffffffffffffff1681565b60015f9054906101000a900473ffffffffffffffffffffffffffffffffffffffff1673ffffffffffffffffffffffffffffffffffffffff163373ffffffffffffffffffffffffffffffffffffffff1614610f94576040517f08c379a0000000000000000000000000000000000000000000000000000000008152600401610f8b906119aa565b60405180910390fd5b6002548110610fd8576040517f08c379a0000000000000000000000000000000000000000000000000000000008152600401610fcf90611db3565b60405180910390fd5b611024828260065f9054906101000a900473ffffffffffffffffffffffffffffffffffffffff1673ffffffffffffffffffffffffffffffffffffffff166114169092919063ffffffff16565b5050565b5f602052805f5260405f205f91509050805f015f9054906101000a900473ffffffffffffffffffffffffffffffffffffffff1690806001015490806002016040518060400160405290815f8201548152602001600182015481525050905083565b60015f9054906101000a900473ffffffffffffffffffffffffffffffffffffffff1673ffffffffffffffffffffffffffffffffffffffff163373ffffffffffffffffffffffffffffffffffffffff1614611118576040517f08c379a000000000000000000000000000000000000000000000000000000000815260040161110f906119aa565b60405180910390fd5b60035460065f9054906101000a900473ffffffffffffffffffffffffffffffffffffffff1673ffffffffffffffffffffffffffffffffffffffff166370a08231306040518263ffffffff1660e01b815260040161117591906118d5565b602060405180830381865afa158015611190573d5f5f3e3d5ffd5b505050506040513d601f19601f820116820180604052508101906111b49190611de5565b6111be9190611ac5565b811115611200576040517f08c379a00000000000000000000000000000000000000000000000000000000081526004016111f790611e5a565b60405180910390fd5b61124c828260065f9054906101000a900473ffffffffffffffffffffffffffffffffffffffff1673ffffffffffffffffffffffffffffffffffffffff166114169092919063ffffffff16565b5050565b60035481565b60025481565b60055481565b8173ffffffffffffffffffffffffffffffffffffffff163373ffffffffffffffffffffffffffffffffffffffff16146112d0576040517f08c379a00000000000000000000000000000000000000000000000000000000081526004016112c790611a12565b60405180910390fd5b6005546005603c6004546112e49190611af8565b6112ee9190611af8565b6112f89190611b66565b5f5f8473ffffffffffffffffffffffffffffffffffffffff1673ffffffffffffffffffffffffffffffffffffffff1681526020019081526020015f20600101541015611379576040517f08c379a000000000000000000000000000000000000000000000000000000000815260040161137090611ec2565b60405180910390fd5b5f811461138b5761138a8282611517565b5b425f5f8473ffffffffffffffffffffffffffffffffffffffff1673ffffffffffffffffffffffffffffffffffffffff1681526020019081526020015f206002015f01819055507fd1375a2bd7af3e3ac560b353487b93a444301749570c29fef988c9207868bba1826113fc84610db0565b60405161140a929190611ee0565b60405180910390a15050565b611490838473ffffffffffffffffffffffffffffffffffffffff1663a9059cbb8585604051602401611449929190611ee0565b604051602081830303815290604052915060e01b6020820180517bffffffffffffffffffffffffffffffffffffffffffffffffffffffff8381831617835250505050611560565b505050565b611511848573ffffffffffffffffffffffffffffffffffffffff166323b872dd8686866040516024016114ca93929190611f07565b604051602081830303815290604052915060e01b6020820180517bffffffffffffffffffffffffffffffffffffffffffffffffffffffff8381831617835250505050611560565b50505050565b7fd1375a2bd7af3e3ac560b353487b93a444301749570c29fef988c9207868bba182603c836115469190611af8565b604051611554929190611ee0565b60405180910390a15050565b5f5f60205f8451602086015f885af18061157f576040513d5f823e3d81fd5b3d92505f519150505f82146115985760018114156115b3565b5f8473ffffffffffffffffffffffffffffffffffffffff163b145b156115f557836040517f5274afe70000000000000000000000000000000000000000000000000000000081526004016115ec91906118d5565b60405180910390fd5b50505050565b60405180606001604052805f73ffffffffffffffffffffffffffffffffffffffff1681526020015f8152602001611630611636565b81525090565b60405180604001604052805f81526020015f81525090565b5f5ffd5b5f73ffffffffffffffffffffffffffffffffffffffff82169050919050565b5f61167b82611652565b9050919050565b61168b81611671565b8114611695575f5ffd5b50565b5f813590506116a681611682565b92915050565b5f602082840312156116c1576116c061164e565b5b5f6116ce84828501611698565b91505092915050565b5f819050919050565b6116e9816116d7565b81146116f3575f5ffd5b50565b5f81359050611704816116e0565b92915050565b5f5f604083850312156117205761171f61164e565b5b5f61172d858286016116f6565b925050602061173e858286016116f6565b9150509250929050565b5f819050919050565b5f61176b61176661176184611652565b611748565b611652565b9050919050565b5f61177c82611751565b9050919050565b5f61178d82611772565b9050919050565b61179d81611783565b82525050565b5f6020820190506117b65f830184611794565b92915050565b5f5f604083850312156117d2576117d161164e565b5b5f6117df85828601611698565b92505060206117f0858286016116f6565b9150509250929050565b611803816116d7565b82525050565b5f60208201905061181c5f8301846117fa565b92915050565b61182b81611671565b82525050565b61183a816116d7565b82525050565b604082015f8201516118545f850182611831565b5060208201516118676020850182611831565b50505050565b608082015f8201516118815f850182611822565b5060208201516118946020850182611831565b5060408201516118a76040850182611840565b50505050565b5f6080820190506118c05f83018461186d565b92915050565b6118cf81611671565b82525050565b5f6020820190506118e85f8301846118c6565b92915050565b604082015f8201516119025f850182611831565b5060208201516119156020850182611831565b50505050565b5f60808201905061192e5f8301866118c6565b61193b60208301856117fa565b61194860408301846118ee565b949350505050565b5f82825260208201905092915050565b7f4e6f74206f776e657200000000000000000000000000000000000000000000005f82015250565b5f611994600983611950565b915061199f82611960565b602082019050919050565b5f6020820190508181035f8301526119c181611988565b9050919050565b7f4e6f7420757365720000000000000000000000000000000000000000000000005f82015250565b5f6119fc600883611950565b9150611a07826119c8565b602082019050919050565b5f6020820190508181035f830152611a29816119f0565b9050919050565b7f546f6f2073686f72742074696d650000000000000000000000000000000000005f82015250565b5f611a64600e83611950565b9150611a6f82611a30565b602082019050919050565b5f6020820190508181035f830152611a9181611a58565b9050919050565b7f4e487b71000000000000000000000000000000000000000000000000000000005f52601160045260245ffd5b5f611acf826116d7565b9150611ada836116d7565b9250828203905081811115611af257611af1611a98565b5b92915050565b5f611b02826116d7565b9150611b0d836116d7565b9250828202611b1b816116d7565b91508282048414831517611b3257611b31611a98565b5b5092915050565b7f4e487b71000000000000000000000000000000000000000000000000000000005f52601260045260245ffd5b5f611b70826116d7565b9150611b7b836116d7565b925082611b8b57611b8a611b39565b5b828204905092915050565b5f611ba0826116d7565b9150611bab836116d7565b9250828201905080821115611bc357611bc2611a98565b5b92915050565b7f4c657373207468616e20313030000000000000000000000000000000000000005f82015250565b5f611bfd600d83611950565b9150611c0882611bc9565b602082019050919050565b5f6020820190508181035f830152611c2a81611bf1565b9050919050565b7f436865636b2075736572000000000000000000000000000000000000000000005f82015250565b5f611c65600a83611950565b9150611c7082611c31565b602082019050919050565b5f6020820190508181035f830152611c9281611c59565b9050919050565b7f496e73756666696369656e742062616c616e63650000000000000000000000005f82015250565b5f611ccd601483611950565b9150611cd882611c99565b602082019050919050565b5f6020820190508181035f830152611cfa81611cc1565b9050919050565b7f4d696e696d756d203120646f6c6c6172000000000000000000000000000000005f82015250565b5f611d35601083611950565b9150611d4082611d01565b602082019050919050565b5f6020820190508181035f830152611d6281611d29565b9050919050565b7f546f6f206d75636820616d6f756e7400000000000000000000000000000000005f82015250565b5f611d9d600f83611950565b9150611da882611d69565b602082019050919050565b5f6020820190508181035f830152611dca81611d91565b9050919050565b5f81519050611ddf816116e0565b92915050565b5f60208284031215611dfa57611df961164e565b5b5f611e0784828501611dd1565b91505092915050565b7f4e6f74206f776e6572206d6f6e657900000000000000000000000000000000005f82015250565b5f611e44600f83611950565b9150611e4f82611e10565b602082019050919050565b5f6020820190508181035f830152611e7181611e38565b9050919050565b7f4d696e696d756d203130206d696e0000000000000000000000000000000000005f82015250565b5f611eac600e83611950565b9150611eb782611e78565b602082019050919050565b5f6020820190508181035f830152611ed981611ea0565b9050919050565b5f604082019050611ef35f8301856118c6565b611f0060208301846117fa565b9392505050565b5f606082019050611f1a5f8301866118c6565b611f2760208301856118c6565b611f3460408301846117fa565b94935050505056fea2646970667358221220e307ed94ff8f234d193170b6c385a916ada92c0813e38c352add50673d947bb264736f6c634300081d0033a26469706673582212200f2d7216837a265ed4ae343503ce97feb2f26bf180394a63685af6229e23bd0164736f6c634300081d0033","linkReferences":{}},"methodIdentifiers":{"companies(address)":"355e6ce8","owner()":"8da5cb5b","register(address,bytes,string,address)":"a0639012","viewCompanyDetail(address)":"61ed723c"},"id":32}