{"abi":[{"type":"constructor","inputs":[{"name":"_owner","type":"address","internalType":"address"},{"name":"_usdc","type":"address","internalType":"address"}],"stateMutability":"nonpayable"},{"type":"function","name":"deposit","inputs":[{"name":"user","type":"address","internalType":"address"},{"name":"amount","type":"uint256","internalType":"uint256"}],"outputs":[],"stateMutability":"nonpayable"},{"type":"function","name":"endStream","inputs":[{"name":"user","type":"address","internalType":"address"}],"outputs":[],"stateMutability":"nonpayable"},{"type":"function","name":"owner","inputs":[],"outputs":[{"name":"","type":"address","internalType":"address"}],"stateMutability":"view"},{"type":"function","name":"ownerBalance","inputs":[],"outputs":[{"name":"","type":"uint256","internalType":"uint256"}],"stateMutability":"view"},{"type":"function","name":"refund","inputs":[{"name":"user","type":"address","internalType":"address"},{"name":"amount","type":"uint256","internalType":"uint256"}],"outputs":[],"stateMutability":"nonpayable"},{"type":"function","name":"rescueLockMoney","inputs":[{"name":"to","type":"address","internalType":"address"},{"name":"amount","type":"uint256","internalType":"uint256"}],"outputs":[],"stateMutability":"nonpayable"},{"type":"function","name":"secondFee","inputs":[],"outputs":[{"name":"","type":"uint256","internalType":"uint256"}],"stateMutability":"view"},{"type":"function","name":"setOwner","inputs":[{"name":"newOwner","type":"address","internalType":"address"}],"outputs":[],"stateMutability":"nonpayable"},{"type":"function","name":"setSecondFee","inputs":[{"name":"hour","type":"uint256","internalType":"uint256"},{"name":"dollar","type":"uint256","internalType":"uint256"}],"outputs":[],"stateMutability":"nonpayable"},{"type":"function","name":"startStream","inputs":[{"name":"user","type":"address","internalType":"address"},{"name":"timeoutMin","type":"uint256","internalType":"uint256"}],"outputs":[],"stateMutability":"nonpayable"},{"type":"function","name":"totalBalance","inputs":[],"outputs":[{"name":"","type":"uint256","internalType":"uint256"}],"stateMutability":"view"},{"type":"function","name":"upscailing","inputs":[],"outputs":[{"name":"","type":"uint256","internalType":"uint256"}],"stateMutability":"view"},{"type":"function","name":"usdc","inputs":[],"outputs":[{"name":"","type":"address","internalType":"contract USDC"}],"stateMutability":"view"},{"type":"function","name":"users","inputs":[{"name":"","type":"address","internalType":"address"}],"outputs":[{"name":"user","type":"address","internalType":"address"},{"name":"charge","type":"uint256","internalType":"uint256"},{"name":"time","type":"tuple","internalType":"struct bbungfluid.timeLog","components":[{"name":"lastStart","type":"uint256","internalType":"uint256"},{"name":"lastEnd","type":"uint256","internalType":"uint256"}]}],"stateMutability":"view"},{"type":"function","name":"viewRemainStreamTime","inputs":[{"name":"user","type":"address","internalType":"address"}],"outputs":[{"name":"","type":"uint256","internalType":"uint256"}],"stateMutability":"view"},{"type":"function","name":"viewUSERInfo","inputs":[{"name":"user","type":"address","internalType":"address"}],"outputs":[{"name":"","type":"tuple","internalType":"struct bbungfluid.USERInfo","components":[{"name":"user","type":"address","internalType":"address"},{"name":"charge","type":"uint256","internalType":"uint256"},{"name":"time","type":"tuple","internalType":"struct bbungfluid.timeLog","components":[{"name":"lastStart","type":"uint256","internalType":"uint256"},{"name":"lastEnd","type":"uint256","internalType":"uint256"}]}]}],"stateMutability":"view"},{"type":"function","name":"withdrawOwner","inputs":[{"name":"to","type":"address","internalType":"address"},{"name":"amount","type":"uint256","internalType":"uint256"}],"outputs":[],"stateMutability":"nonpayable"},{"type":"event","name":"forcedShutdown","inputs":[{"name":"user","type":"address","indexed":false,"internalType":"address"},{"name":"remainSecond","type":"uint256","indexed":false,"internalType":"uint256"}],"anonymous":false},{"type":"error","name":"SafeERC20FailedOperation","inputs":[{"name":"token","type":"address","internalType":"address"}]}],"bytecode":{"object":"0x608060405234801561000f575f5ffd5b506040516120de3803806120de83398181016040528101906100319190610122565b8160015f6101000a81548173ffffffffffffffffffffffffffffffffffffffff021916908373ffffffffffffffffffffffffffffffffffffffff1602179055508060065f6101000a81548173ffffffffffffffffffffffffffffffffffffffff021916908373ffffffffffffffffffffffffffffffffffffffff1602179055506402540be4006005819055505050610160565b5f5ffd5b5f73ffffffffffffffffffffffffffffffffffffffff82169050919050565b5f6100f1826100c8565b9050919050565b610101816100e7565b811461010b575f5ffd5b50565b5f8151905061011c816100f8565b92915050565b5f5f60408385031215610138576101376100c4565b5b5f6101458582860161010e565b92505060206101568582860161010e565b9150509250929050565b611f718061016d5f395ff3fe608060405234801561000f575f5ffd5b5060043610610108575f3560e01c806386c5d4a1116100a0578063aa24147e1161006f578063aa24147e146102a0578063ad7a672f146102bc578063bedcf003146102da578063c475713f146102f8578063da17c5131461031657610108565b806386c5d4a1146102045780638da5cb5b14610234578063a388541314610252578063a87430ba1461026e57610108565b80633e413bee116100dc5780633e413bee14610190578063410085df146101ae57806347e7ef24146101ca5780634b9d11eb146101e657610108565b80627f300d1461010c57806313af40351461013c57806323341ada146101585780632cadfad814610174575b5f5ffd5b610126600480360381019061012191906116ab565b610332565b60405161013391906116ee565b60405180910390f35b610156600480360381019061015191906116ab565b610387565b005b610172600480360381019061016d91906116ab565b610459565b005b61018e60048036038101906101899190611731565b6109ff565b005b610198610b26565b6040516101a591906117ca565b60405180910390f35b6101c860048036038101906101c391906117e3565b610b4b565b005b6101e460048036038101906101df91906117e3565b610c8b565b005b6101ee610dfe565b6040516101fb91906116ee565b60405180910390f35b61021e600480360381019061021991906116ab565b610e04565b60405161022b91906118ac565b60405180910390f35b61023c610edf565b60405161024991906118d4565b60405180910390f35b61026c600480360381019061026791906117e3565b610f04565b005b610288600480360381019061028391906116ab565b611027565b6040516102979392919061191a565b60405180910390f35b6102ba60048036038101906102b591906117e3565b611088565b005b6102c461124f565b6040516102d191906116ee565b60405180910390f35b6102e2611255565b6040516102ef91906116ee565b60405180910390f35b61030061125b565b60405161030d91906116ee565b60405180910390f35b610330600480360381019061032b91906117e3565b611261565b005b5f6004545f5f8473ffffffffffffffffffffffffffffffffffffffff1673ffffffffffffffffffffffffffffffffffffffff1681526020019081526020015f206001015461038091906119a9565b9050919050565b60015f9054906101000a900473ffffffffffffffffffffffffffffffffffffffff1673ffffffffffffffffffffffffffffffffffffffff163373ffffffffffffffffffffffffffffffffffffffff1614610416576040517f08c379a000000000000000000000000000000000000000000000000000000000815260040161040d90611a33565b60405180910390fd5b8060015f6101000a81548173ffffffffffffffffffffffffffffffffffffffff021916908373ffffffffffffffffffffffffffffffffffffffff16021790555050565b8073ffffffffffffffffffffffffffffffffffffffff163373ffffffffffffffffffffffffffffffffffffffff1614806104df575060015f9054906101000a900473ffffffffffffffffffffffffffffffffffffffff1673ffffffffffffffffffffffffffffffffffffffff163373ffffffffffffffffffffffffffffffffffffffff16145b61051e576040517f08c379a000000000000000000000000000000000000000000000000000000000815260040161051590611a9b565b60405180910390fd5b5f5f8273ffffffffffffffffffffffffffffffffffffffff1673ffffffffffffffffffffffffffffffffffffffff1681526020019081526020015f206002015f015442116105a1576040517f08c379a000000000000000000000000000000000000000000000000000000000815260040161059890611b03565b60405180910390fd5b425f5f8373ffffffffffffffffffffffffffffffffffffffff1673ffffffffffffffffffffffffffffffffffffffff1681526020019081526020015f206002016001018190555061012c5f5f8373ffffffffffffffffffffffffffffffffffffffff1673ffffffffffffffffffffffffffffffffffffffff1681526020019081526020015f206002015f01545f5f8473ffffffffffffffffffffffffffffffffffffffff1673ffffffffffffffffffffffffffffffffffffffff1681526020019081526020015f206002016001015461067a9190611b21565b1161077e576005546005603c6004546106939190611b54565b61069d9190611b54565b6106a791906119a9565b5f5f8373ffffffffffffffffffffffffffffffffffffffff1673ffffffffffffffffffffffffffffffffffffffff1681526020019081526020015f206001015f8282546106f49190611b21565b925050819055506005546005603c60045461070f9190611b54565b6107199190611b54565b61072391906119a9565b60035f8282546107339190611b21565b925050819055506005546005603c60045461074e9190611b54565b6107589190611b54565b61076291906119a9565b60025f8282546107729190611b95565b925050819055506109fc565b6005545f5f8373ffffffffffffffffffffffffffffffffffffffff1673ffffffffffffffffffffffffffffffffffffffff1681526020019081526020015f206002015f01545f5f8473ffffffffffffffffffffffffffffffffffffffff1673ffffffffffffffffffffffffffffffffffffffff1681526020019081526020015f20600201600101546108109190611b21565b60045461081d9190611b54565b61082791906119a9565b5f5f8373ffffffffffffffffffffffffffffffffffffffff1673ffffffffffffffffffffffffffffffffffffffff1681526020019081526020015f206001015f8282546108749190611b21565b925050819055506005545f5f8373ffffffffffffffffffffffffffffffffffffffff1673ffffffffffffffffffffffffffffffffffffffff1681526020019081526020015f206002015f01545f5f8473ffffffffffffffffffffffffffffffffffffffff1673ffffffffffffffffffffffffffffffffffffffff1681526020019081526020015f206002016001015461090d9190611b21565b60045461091a9190611b54565b61092491906119a9565b60035f8282546109349190611b21565b925050819055506005545f5f8373ffffffffffffffffffffffffffffffffffffffff1673ffffffffffffffffffffffffffffffffffffffff1681526020019081526020015f206002015f01545f5f8473ffffffffffffffffffffffffffffffffffffffff1673ffffffffffffffffffffffffffffffffffffffff1681526020019081526020015f20600201600101546109cd9190611b21565b6004546109da9190611b54565b6109e491906119a9565b60025f8282546109f49190611b95565b925050819055505b50565b60015f9054906101000a900473ffffffffffffffffffffffffffffffffffffffff1673ffffffffffffffffffffffffffffffffffffffff163373ffffffffffffffffffffffffffffffffffffffff1614610a8e576040517f08c379a0000000000000000000000000000000000000000000000000000000008152600401610a8590611a33565b60405180910390fd5b6064821115610ad2576040517f08c379a0000000000000000000000000000000000000000000000000000000008152600401610ac990611c12565b60405180910390fd5b5f8103610ae1575f6004819055505b620f42408110610b2257603c8083610af99190611b54565b610b039190611b54565b60055482610b119190611b54565b610b1b91906119a9565b6004819055505b5050565b60065f9054906101000a900473ffffffffffffffffffffffffffffffffffffffff1681565b8173ffffffffffffffffffffffffffffffffffffffff163373ffffffffffffffffffffffffffffffffffffffff1614610bb9576040517f08c379a0000000000000000000000000000000000000000000000000000000008152600401610bb090611c7a565b60405180910390fd5b5f5f8373ffffffffffffffffffffffffffffffffffffffff1673ffffffffffffffffffffffffffffffffffffffff1681526020019081526020015f2060010154811115610c3b576040517f08c379a0000000000000000000000000000000000000000000000000000000008152600401610c3290611ce2565b60405180910390fd5b610c87828260065f9054906101000a900473ffffffffffffffffffffffffffffffffffffffff1673ffffffffffffffffffffffffffffffffffffffff166114159092919063ffffffff16565b5050565b8173ffffffffffffffffffffffffffffffffffffffff163373ffffffffffffffffffffffffffffffffffffffff1614610cf9576040517f08c379a0000000000000000000000000000000000000000000000000000000008152600401610cf090611c7a565b60405180910390fd5b620f4240811015610d3f576040517f08c379a0000000000000000000000000000000000000000000000000000000008152600401610d3690611d4a565b60405180910390fd5b610d8d33308360065f9054906101000a900473ffffffffffffffffffffffffffffffffffffffff1673ffffffffffffffffffffffffffffffffffffffff16611494909392919063ffffffff16565b805f5f8473ffffffffffffffffffffffffffffffffffffffff1673ffffffffffffffffffffffffffffffffffffffff1681526020019081526020015f206001015f828254610ddb9190611b95565b925050819055508060035f828254610df39190611b95565b925050819055505050565b60045481565b610e0c6115fa565b5f5f8373ffffffffffffffffffffffffffffffffffffffff1673ffffffffffffffffffffffffffffffffffffffff1681526020019081526020015f206040518060600160405290815f82015f9054906101000a900473ffffffffffffffffffffffffffffffffffffffff1673ffffffffffffffffffffffffffffffffffffffff1673ffffffffffffffffffffffffffffffffffffffff16815260200160018201548152602001600282016040518060400160405290815f8201548152602001600182015481525050815250509050919050565b60015f9054906101000a900473ffffffffffffffffffffffffffffffffffffffff1681565b60015f9054906101000a900473ffffffffffffffffffffffffffffffffffffffff1673ffffffffffffffffffffffffffffffffffffffff163373ffffffffffffffffffffffffffffffffffffffff1614610f93576040517f08c379a0000000000000000000000000000000000000000000000000000000008152600401610f8a90611a33565b60405180910390fd5b6002548110610fd7576040517f08c379a0000000000000000000000000000000000000000000000000000000008152600401610fce90611db2565b60405180910390fd5b611023828260065f9054906101000a900473ffffffffffffffffffffffffffffffffffffffff1673ffffffffffffffffffffffffffffffffffffffff166114159092919063ffffffff16565b5050565b5f602052805f5260405f205f91509050805f015f9054906101000a900473ffffffffffffffffffffffffffffffffffffffff1690806001015490806002016040518060400160405290815f8201548152602001600182015481525050905083565b60015f9054906101000a900473ffffffffffffffffffffffffffffffffffffffff1673ffffffffffffffffffffffffffffffffffffffff163373ffffffffffffffffffffffffffffffffffffffff1614611117576040517f08c379a000000000000000000000000000000000000000000000000000000000815260040161110e90611a33565b60405180910390fd5b60035460065f9054906101000a900473ffffffffffffffffffffffffffffffffffffffff1673ffffffffffffffffffffffffffffffffffffffff166370a08231306040518263ffffffff1660e01b815260040161117491906118d4565b602060405180830381865afa15801561118f573d5f5f3e3d5ffd5b505050506040513d601f19601f820116820180604052508101906111b39190611de4565b6111bd9190611b21565b8111156111ff576040517f08c379a00000000000000000000000000000000000000000000000000000000081526004016111f690611e59565b60405180910390fd5b61124b828260065f9054906101000a900473ffffffffffffffffffffffffffffffffffffffff1673ffffffffffffffffffffffffffffffffffffffff166114159092919063ffffffff16565b5050565b60035481565b60025481565b60055481565b8173ffffffffffffffffffffffffffffffffffffffff163373ffffffffffffffffffffffffffffffffffffffff16146112cf576040517f08c379a00000000000000000000000000000000000000000000000000000000081526004016112c690611a9b565b60405180910390fd5b6005546005603c6004546112e39190611b54565b6112ed9190611b54565b6112f791906119a9565b5f5f8473ffffffffffffffffffffffffffffffffffffffff1673ffffffffffffffffffffffffffffffffffffffff1681526020019081526020015f20600101541015611378576040517f08c379a000000000000000000000000000000000000000000000000000000000815260040161136f90611ec1565b60405180910390fd5b5f811461138a576113898282611516565b5b425f5f8473ffffffffffffffffffffffffffffffffffffffff1673ffffffffffffffffffffffffffffffffffffffff1681526020019081526020015f206002015f01819055507fd1375a2bd7af3e3ac560b353487b93a444301749570c29fef988c9207868bba1826113fb84610332565b604051611409929190611edf565b60405180910390a15050565b61148f838473ffffffffffffffffffffffffffffffffffffffff1663a9059cbb8585604051602401611448929190611edf565b604051602081830303815290604052915060e01b6020820180517bffffffffffffffffffffffffffffffffffffffffffffffffffffffff838183161783525050505061155f565b505050565b611510848573ffffffffffffffffffffffffffffffffffffffff166323b872dd8686866040516024016114c993929190611f06565b604051602081830303815290604052915060e01b6020820180517bffffffffffffffffffffffffffffffffffffffffffffffffffffffff838183161783525050505061155f565b50505050565b7fd1375a2bd7af3e3ac560b353487b93a444301749570c29fef988c9207868bba182603c836115459190611b54565b604051611553929190611edf565b60405180910390a15050565b5f5f60205f8451602086015f885af18061157e576040513d5f823e3d81fd5b3d92505f519150505f82146115975760018114156115b2565b5f8473ffffffffffffffffffffffffffffffffffffffff163b145b156115f457836040517f5274afe70000000000000000000000000000000000000000000000000000000081526004016115eb91906118d4565b60405180910390fd5b50505050565b60405180606001604052805f73ffffffffffffffffffffffffffffffffffffffff1681526020015f815260200161162f611635565b81525090565b60405180604001604052805f81526020015f81525090565b5f5ffd5b5f73ffffffffffffffffffffffffffffffffffffffff82169050919050565b5f61167a82611651565b9050919050565b61168a81611670565b8114611694575f5ffd5b50565b5f813590506116a581611681565b92915050565b5f602082840312156116c0576116bf61164d565b5b5f6116cd84828501611697565b91505092915050565b5f819050919050565b6116e8816116d6565b82525050565b5f6020820190506117015f8301846116df565b92915050565b611710816116d6565b811461171a575f5ffd5b50565b5f8135905061172b81611707565b92915050565b5f5f604083850312156117475761174661164d565b5b5f6117548582860161171d565b92505060206117658582860161171d565b9150509250929050565b5f819050919050565b5f61179261178d61178884611651565b61176f565b611651565b9050919050565b5f6117a382611778565b9050919050565b5f6117b482611799565b9050919050565b6117c4816117aa565b82525050565b5f6020820190506117dd5f8301846117bb565b92915050565b5f5f604083850312156117f9576117f861164d565b5b5f61180685828601611697565b92505060206118178582860161171d565b9150509250929050565b61182a81611670565b82525050565b611839816116d6565b82525050565b604082015f8201516118535f850182611830565b5060208201516118666020850182611830565b50505050565b608082015f8201516118805f850182611821565b5060208201516118936020850182611830565b5060408201516118a6604085018261183f565b50505050565b5f6080820190506118bf5f83018461186c565b92915050565b6118ce81611670565b82525050565b5f6020820190506118e75f8301846118c5565b92915050565b604082015f8201516119015f850182611830565b5060208201516119146020850182611830565b50505050565b5f60808201905061192d5f8301866118c5565b61193a60208301856116df565b61194760408301846118ed565b949350505050565b7f4e487b71000000000000000000000000000000000000000000000000000000005f52601260045260245ffd5b7f4e487b71000000000000000000000000000000000000000000000000000000005f52601160045260245ffd5b5f6119b3826116d6565b91506119be836116d6565b9250826119ce576119cd61194f565b5b828204905092915050565b5f82825260208201905092915050565b7f4e6f74206f776e657200000000000000000000000000000000000000000000005f82015250565b5f611a1d6009836119d9565b9150611a28826119e9565b602082019050919050565b5f6020820190508181035f830152611a4a81611a11565b9050919050565b7f4e6f7420757365720000000000000000000000000000000000000000000000005f82015250565b5f611a856008836119d9565b9150611a9082611a51565b602082019050919050565b5f6020820190508181035f830152611ab281611a79565b9050919050565b7f546f6f2073686f72742074696d650000000000000000000000000000000000005f82015250565b5f611aed600e836119d9565b9150611af882611ab9565b602082019050919050565b5f6020820190508181035f830152611b1a81611ae1565b9050919050565b5f611b2b826116d6565b9150611b36836116d6565b9250828203905081811115611b4e57611b4d61197c565b5b92915050565b5f611b5e826116d6565b9150611b69836116d6565b9250828202611b77816116d6565b91508282048414831517611b8e57611b8d61197c565b5b5092915050565b5f611b9f826116d6565b9150611baa836116d6565b9250828201905080821115611bc257611bc161197c565b5b92915050565b7f4c657373207468616e20313030000000000000000000000000000000000000005f82015250565b5f611bfc600d836119d9565b9150611c0782611bc8565b602082019050919050565b5f6020820190508181035f830152611c2981611bf0565b9050919050565b7f436865636b2075736572000000000000000000000000000000000000000000005f82015250565b5f611c64600a836119d9565b9150611c6f82611c30565b602082019050919050565b5f6020820190508181035f830152611c9181611c58565b9050919050565b7f496e73756666696369656e742062616c616e63650000000000000000000000005f82015250565b5f611ccc6014836119d9565b9150611cd782611c98565b602082019050919050565b5f6020820190508181035f830152611cf981611cc0565b9050919050565b7f4d696e696d756d203120646f6c6c6172000000000000000000000000000000005f82015250565b5f611d346010836119d9565b9150611d3f82611d00565b602082019050919050565b5f6020820190508181035f830152611d6181611d28565b9050919050565b7f546f6f206d75636820616d6f756e7400000000000000000000000000000000005f82015250565b5f611d9c600f836119d9565b9150611da782611d68565b602082019050919050565b5f6020820190508181035f830152611dc981611d90565b9050919050565b5f81519050611dde81611707565b92915050565b5f60208284031215611df957611df861164d565b5b5f611e0684828501611dd0565b91505092915050565b7f4e6f74206f776e6572206d6f6e657900000000000000000000000000000000005f82015250565b5f611e43600f836119d9565b9150611e4e82611e0f565b602082019050919050565b5f6020820190508181035f830152611e7081611e37565b9050919050565b7f4d696e696d756d203130206d696e0000000000000000000000000000000000005f82015250565b5f611eab600e836119d9565b9150611eb682611e77565b602082019050919050565b5f6020820190508181035f830152611ed881611e9f565b9050919050565b5f604082019050611ef25f8301856118c5565b611eff60208301846116df565b9392505050565b5f606082019050611f195f8301866118c5565b611f2660208301856118c5565b611f3360408301846116df565b94935050505056fea26469706673582212206de98296f625ae354c7d14b0a3412a56b9215569b923121cfe49613abe74258264736f6c634300081d0033","linkReferences":{}},"methodIdentifiers":{"deposit(address,uint256)":"47e7ef24","endStream(address)":"23341ada","owner()":"8da5cb5b","ownerBalance()":"bedcf003","refund(address,uint256)":"410085df","rescueLockMoney(address,uint256)":"aa24147e","secondFee()":"4b9d11eb","setOwner(address)":"13af4035","setSecondFee(uint256,uint256)":"2cadfad8","startStream(address,uint256)":"da17c513","totalBalance()":"ad7a672f","upscailing()":"c475713f","usdc()":"3e413bee","users(address)":"a87430ba","viewRemainStreamTime(address)":"007f300d","viewUSERInfo(address)":"86c5d4a1","withdrawOwner(address,uint256)":"a3885413"},"id":33}